2201903010000011000232702980567877****9987123333JOSÉ COSTA    MERCEARIA 3 IRMÃOS
3201903010000012300845152540736877****1313172712MARCOS PEREIRAMERCADO DA AVENIDA
4201903010000017300556418150634677****6678100000MARIA JOSEFINALOJA DO Ó - FILIAL
2201903010000011400232702980567877****8778141808JOSÉ COSTA    MERCEARIA 3 IRMÃOS
5201903010000012400556418150633123****7687145607MARIA JOSEFINALOJA DO Ó - MATRIZ
3201903010000010400845152540736877****1313172712MARCOS PEREIRAMERCADO DA AVENIDA
1201903010000016300556418150634234****3324090002MARIA JOSEFINALOJA DO Ó - MATRIZ
2201903010000010500232702980568877****1231231233JOSÉ COSTA    MERCEARIA 3 IRMÃOS
4201903010000016400556418150634677****2231100000MARIA JOSEFINALOJA DO Ó - FILIAL
8201903010000010300845152540732344****1222123222MARCOS PEREIRAMERCADO DA AVENIDA
3201903010000012100232702980567877****1313172712JOSÉ COSTA    MERCEARIA 3 IRMÃOS
5201903010000014200556418150633223****7687145607MARIA JOSEFINALOJA DO Ó - MATRIZ
2201903010000011100232702980567877****8778141808JOSÉ COSTA    MERCEARIA 3 IRMÃOS
3201903010000011500845152540736877****1313172712MARCOS PEREIRAMERCADO DA AVENIDA
1201903010000017200556418150634234****7890233000JOÃO MACEDO   BAR DO JOÃO       
2201903010000011200232702980568877****1231231233JOSÉ COSTA    MERCEARIA 3 IRMÃOS
5201903010000015100556418150633123****7687145607MARIA JOSEFINALOJA DO Ó - MATRIZ
2201903010000011300232702980568877****9987123333JOSÉ COSTA    MERCEARIA 3 IRMÃOS
3201903010000012700845152540736877****1313172712MARCOS PEREIRAMERCADO DA AVENIDA
9201903010000010300556418150636228****9090000000MARIA JOSEFINALOJA DO Ó - MATRIZ
