2201903010000011500232702980568877****8778141808JOSÉ COSTA    MERCEARIA 3 IRMÃOS
3201903010000011800845152540736877****1313172712MARCOS PEREIRAMERCADO DA AVENIDA
4201903010000017500556418150634677****2231100000MARIA JOSEFINALOJA DO Ó - FILIAL
2201903010000011600232702980567877****1231231233JOSÉ COSTA    MERCEARIA 3 IRMÃOS
5201903010000012600556418150633123****7687145607MARIA JOSEFINALOJA DO Ó - MATRIZ
3201903010000011900845152540736877****1313172712MARCOS PEREIRAMERCADO DA AVENIDA
1201903010000016300556418150634234****3324090002MARIA JOSEFINALOJA DO Ó - MATRIZ
2201903010000011300232702980567877****1231231233JOSÉ COSTA    MERCEARIA 3 IRMÃOS
4201903010000017600556418150634677****2231100000MARIA JOSEFINALOJA DO Ó - FILIAL
8201903010000010600845152540732344****1222123222MARCOS PEREIRAMERCADO DA AVENIDA
3201903010000012200232702980567877****1313172712JOSÉ COSTA    MERCEARIA 3 IRMÃOS
5201903010000015300556418150633123****7687145607MARIA JOSEFINALOJA DO Ó - MATRIZ
2201903010000011400232702980567877****8778141808JOSÉ COSTA    MERCEARIA 3 IRMÃOS
3201903010000012300845152540736877****1313172712MARCOS PEREIRAMERCADO DA AVENIDA
1201903010000017100556418150634234****7890233000JOÃO MACEDO   BAR DO JOÃO       
2201903010000011200232702980568877****1231231233JOSÉ COSTA    MERCEARIA 3 IRMÃOS
5201903010000015400556418150633123****7687145607MARIA JOSEFINALOJA DO Ó - MATRIZ
2201903010000011300232702980567877****9987123333JOSÉ COSTA    MERCEARIA 3 IRMÃOS
3201903010000012400845152540736877****1313172712MARCOS PEREIRAMERCADO DA AVENIDA
9201903010000010500556418150636228****9090000000MARIA JOSEFINALOJA DO Ó - MATRIZ
4201903010000017800556418150634677****2231100000MARIA JOSEFINALOJA DO Ó - FILIAL
2201903010000011800232702980568877****8778141808JOSÉ COSTA    MERCEARIA 3 IRMÃOS
3201903010000012500845152540736877****1313172712MARCOS PEREIRAMERCADO DA AVENIDA
1201903010000017200556418150634234****7890233000JOÃO MACEDO   BAR DO JOÃO       
2201903010000011600232702980567877****1231231233JOSÉ COSTA    MERCEARIA 3 IRMÃOS
5201903010000015500556418150633123****7687145607MARIA JOSEFINALOJA DO Ó - MATRIZ
2201903010000011300232702980567877****9987123333JOSÉ COSTA    MERCEARIA 3 IRMÃOS
3201903010000012400845152540736877****1313172712MARCOS PEREIRAMERCADO DA AVENIDA
9201903010000010600556418150636228****9090000000MARIA JOSEFINALOJA DO Ó - MATRIZ
4201903010000017900556418150634677****2231100000MARIA JOSEFINALOJA DO Ó - FILIAL
2201903010000011900232702980568877****8778141808JOSÉ COSTA    MERCEARIA 3 IRMÃOS
3201903010000012600845152540736877****1313172712MARCOS PEREIRAMERCADO DA AVENIDA
1201903010000017300556418150634234****7890233000JOÃO MACEDO   BAR DO JOÃO       
2201903010000011700232702980567877****1231231233JOSÉ COSTA    MERCEARIA 3 IRMÃOS
5201903010000015600556418150633123****7687145607MARIA JOSEFINALOJA DO Ó - MATRIZ
2201903010000011400232702980567877****9987123333JOSÉ COSTA    MERCEARIA 3 IRMÃOS
3201903010000012700845152540736877****1313172712MARCOS PEREIRAMERCADO DA AVENIDA
9201903010000010700556418150636228****9090000000MARIA JOSEFINALOJA DO Ó - MATRIZ
4201903010000018000556418150634677****2231100000MARIA JOSEFINALOJA DO Ó - FILIAL
2201903010000011800232702980568877****8778141808JOSÉ COSTA    MERCEARIA 3 IRMÃOS
3201903010000012800845152540736877****1313172712MARCOS PEREIRAMERCADO DA AVENIDA
1201903010000017400556418150634234****7890233000JOÃO MACEDO   BAR DO JOÃO       
