2201903010000012000232702980568877****8778141808JOSÉ COSTA    MERCEARIA 3 IRMÃOS
3201903010000012900845152540736877****1313172712MARCOS PEREIRAMERCADO DA AVENIDA
4201903010000018100556418150634677****2231100000MARIA JOSEFINALOJA DO Ó - FILIAL
2201903010000012100232702980567877****1231231233JOSÉ COSTA    MERCEARIA 3 IRMÃOS
5201903010000015700556418150633123****7687145607MARIA JOSEFINALOJA DO Ó - MATRIZ
3201903010000013000845152540736877****1313172712MARCOS PEREIRAMERCADO DA AVENIDA
1201903010000017500556418150634234****7890233000JOÃO MACEDO   BAR DO JOÃO       
2201903010000012200232702980568877****1231231233JOSÉ COSTA    MERCEARIA 3 IRMÃOS
4201903010000018200556418150634677****2231100000MARIA JOSEFINALOJA DO Ó - FILIAL
8201903010000011000845152540732344****1222123222MARCOS PEREIRAMERCADO DA AVENIDA
3201903010000013100232702980567877****1313172712JOSÉ COSTA    MERCEARIA 3 IRMÃOS
5201903010000015800556418150633123****7687145607MARIA JOSEFINALOJA DO Ó - MATRIZ
2201903010000012300232702980567877****8778141808JOSÉ COSTA    MERCEARIA 3 IRMÃOS
3201903010000013200845152540736877****1313172712MARCOS PEREIRAMERCADO DA AVENIDA
1201903010000017600556418150634234****7890233000JOÃO MACEDO   BAR DO JOÃO       
2201903010000012400232702980568877****1231231233JOSÉ COSTA    MERCEARIA 3 IRMÃOS
5201903010000015900556418150633123****7687145607MARIA JOSEFINALOJA DO Ó - MATRIZ
2201903010000012500232702980567877****9987123333JOSÉ COSTA    MERCEARIA 3 IRMÃOS
3201903010000013300845152540736877****1313172712MARCOS PEREIRAMERCADO DA AVENIDA
9201903010000010800556418150636228****9090000000MARIA JOSEFINALOJA DO Ó - MATRIZ
4201903010000018300556418150634677****2231100000MARIA JOSEFINALOJA DO Ó - FILIAL
2201903010000012600232702980568877****8778141808JOSÉ COSTA    MERCEARIA 3 IRMÃOS
3201903010000013400845152540736877****1313172712MARCOS PEREIRAMERCADO DA AVENIDA
1201903010000017700556418150634234****7890233000JOÃO MACEDO   BAR DO JOÃO       
2201903010000012700232702980567877****1231231233JOSÉ COSTA    MERCEARIA 3 IRMÃOS
5201903010000016000556418150633123****7687145607MARIA JOSEFINALOJA DO Ó - MATRIZ
2201903010000012800232702980568877****9987123333JOSÉ COSTA    MERCEARIA 3 IRMÃOS
3201903010000013500845152540736877****1313172712MARCOS PEREIRAMERCADO DA AVENIDA
